:020000040000FA
:100000000C943B040C9463040C9463040C946304FC
:100010000C9463040C9463040C9463040C946304C4
:100020000C9463040C9463040C9463040C946304B4
:100030000C9463040C9463040C9463040C946304A4
:100040000C94060B0C9463040C94760B0C94500BDC
:100050000C9463040C9463040C9463040C94630484
:100060000C9463040C9463045B50524F5445435406
:10007000494F4E5D2053797374656D20696E6974C4
:1000800069616C697A6564005B564F4C5441474521
:100090005F50524F54454354494F4E5D205379733E
:1000A00074656D20696E697469616C697A65642034
:1000B000286661756C7420646574656374696F6E1D
:1000C000206F6E6C7929005374617274696E6720B9
:1000D0006E6F726D616C206F7065726174696F6EA6
:1000E000005361666574792064656C61793A204DCE
:1000F0006F746F72204F464620666F7220322073F5
:1001000065636F6E64732E2E2E003D3D3D3D3D3D7B
:100110003D3D3D3D3D3D3D3D3D3D3D3D3D3D3D3D0F
:100120003D3D3D3D3D3D3D3D3D3D3D3D3D3D3D3DFF
:100130003D3D0053797374656D207265616479008B
:1001400020204641554C543A2020202000202043B6
:100150005249544943414C3A2000202048494748DD
:100160003A20202020200020205741524E494E475F
:100170003A20200050726F74656374696F6E20744A
:1001800068726573686F6C6473202841293A002592
:10019000206F662056737570706C79002D002020DA
:1001A000566F6C746167653A2020002062617200AE
:1001B0002D00202050726573737572653A200043DC
:1001C0006F6E66696775726174696F6E3A00496E29
:1001D000697469616C697A696E672073746174759A
:1001E00073204C45442E2E2E00496E697469616C53
:1001F000697A696E672073656E736F72732E2E2E27
:1002000000496E697469616C697A696E6720706F04
:10021000776572206F75747075747320286D6F74B4
:100220006F72204F4646292E2E2E003D3D3D3D3D0E
:100230003D3D3D3D3D3D3D3D3D3D3D3D3D3D3D3DEE
:100240003D3D3D3D3D3D3D3D3D3D3D3D3D3D3D3DDE
:100250003D3D3D00202050756D70436F6E74726F90
:100260006C20776974682043757272656E742050D3
:10027000726F74656374696F6E2020003D3D3D3D73
:100280003D3D3D3D3D3D3D3D3D3D3D3D3D3D3D3D9E
:100290003D3D3D3D3D3D3D3D3D3D3D3D3D3D3D3D8E
:1002A0003D3D3D3D005B564F4C544147455F5052EC
:1002B0004F54454354494F4E5D2053656E736F72E2
:1002C000207265636F76657265642066726F6D205B
:1002D0004641554C540056002D005B564F4C54413E
:1002E00047455F50524F54454354494F4E5D205649
:1002F000616C69642072616E67653A20005B564FDD
:100300004C544147455F50524F54454354494F4E1A
:100310005D202A2A2A2053454E534F5220464155EC
:100320004C54202A2A2A20436F756E743A20006D9F
:10033000730056207C2054696D653A2000207C2093
:10034000566F6C746167653A2000202D3E20005B7B
:10035000564F4C544147455F50524F5445435449C2
:100360004F4E5D2053656E736F72207374617475A8
:10037000733A20005B50524F54454354494F4E5DF1
:10038000205265636F76657265642066726F6D20BA
:100390004641554C542F454D455247454E43590013
:1003A0005B50524F54454354494F4E5D202A2A2AF0
:1003B000204641554C54204556454E54202A2A2A61
:1003C00020436F756E743A200000212121212121E4
:1003D000212121212121212121212121212121210D
:1003E00021212121212121212121212121212121FD
:1003F0002121212100414354494F4E3A20436F6D42
:10040000706C6574652073687574646F776E2028EE
:10041000302520706F776572290041290053656E81
:10042000736F72206E65617220736174757261748E
:10043000696F6E206C696D69742028004129004144
:1004400020285468726573686F6C643A20004375A5
:100450007272656E743A200021212121212121210F
:10046000212121212121212121212121212121217C
:10047000212121212121212121212121212121216C
:1004800021210021212120202053484F5254204374
:10049000495243554954204F52204F5645524C4FD4
:1004A0004144202020202020202121210021212121
:1004B000202020454D455247454E4359205348552D
:1004C00054444F574E2054524947474552454420C3
:1004D0002020202121210021212121212121212130
:1004E00021212121212121212121212121212121FC
:1004F00021212121212121212121212121212121EC
:100500002100006D730041207C2054696D652073CB
:10051000696E6365206C6173743A2000207C20430F
:10052000757272656E743A2000202D3E20005B507B
:10053000524F54454354494F4E5D204C6576656C8F
:10054000206368616E67653A20002D2D2D2D2D2DBD
:100550002D2D2D2D2D2D2D2D2D2D2D2D2D2D2D2DCB
:100560002D2D2D2D2D2D2D2D2D2D2D2D2D2D2D2DBB
:100570002D2D00207300557074696D653A20202080
:1005800020202020202020004469676974616C20AD
:10059000496E20323A202020200044696769746146
:1005A0006C20496E20313A20202020004578746567
:1005B000726E616C205361666574793A2000202563
:1005C0000050574D20447574793A20202020202077
:1005D00020200020560041637475616C20566F6CBA
:1005E000746167653A202000205600546172676587
:1005F0007420566F6C746167653A202000202500D6
:100600005461726765742050657263656E743A2038
:1006100020004661756C7420436F756E743A20201B
:1006200020202000202500566F6C74616765204CE7
:10063000696D69743A2020200050726F746563748C
:10064000696F6E3A202020202020005620466175D8
:100650006C7420436F756E743A2020200053656ED1
:10066000736F722056616C69643A20202020005616
:100670006F6C74616765205374617475733A2020E0
:1006800000205600537570706C7920566F6C746141
:1006900067653A2020002056202872617720617615
:1006A0006729002056202866696C74657265642984
:1006B0002C200043683220566F6C746167653A20C5
:1006C0002020202000205620287261772061766744
:1006D00029002056202866696C7465726564292C8F
:1006E000200043683120566F6C746167653A2020A2
:1006F000202020002041004D6178204375727265F2
:100700006E743A2020202020002041004375727230
:10071000656E74204368323A20202020200020415A
:100720000043757272656E74204368313A20202050
:1007300020200020626172005072657373757265CB
:100740003A2020202020202020002D2D2D2D2D2D61
:100750002D2D2D2D2D2D2D2D2D2D2D2D2D2D2D2DC9
:100760002D2D2D2D2D2D2D2D2D2D2D2D2D2D2D2DB9
:100770002D2D00535441545553205245504F52543F
:10078000002D2D2D2D2D2D2D2D2D2D2D2D2D2D2DC6
:100790002D2D2D2D2D2D2D2D2D2D2D2D2D2D2D2D89
:1007A0002D2D2D2D2D2D2D2D2D0025207C20004192
:1007B000207C204C696D3A0041207C2049323A006F
:1007C00056207C2049313A0025207C20566F3A0083
:1007D00056207C2054253A00626172207C2056739A
:1007E0003A00503A002A2A2A2045585445524E4190
:1007F0004C205341464554592041435449564520C5
:100800002D204F555450555420464F5243454420B7
:100810004F4646202A2A2A00000000002400270014
:100820002A00000000002300260029000000000824
:1008300000020100000304070000000000000000A7
:100840000102040810204080010204081020010267
:100850000408102000000000250028002B000404DC
:100860000404040404040202020202020303030358
:100870000303A80B341711241FBECFEFD8E0DEBF4F
:10088000CDBF11E0A0E0B1E0EAEEF5E302C00590D3
:100890000D92A83BB107D9F722E0A8EBB1E001C067
:1008A0001D92A53CB207E1F714E0CAE3D4E004C00E
:1008B0002197FE010E94BD19C933D107C9F70E94D3
:1008C000F50C0C94E81A0C940000833081F028F4A5
:1008D000813099F08230A9F008958730A9F08830EE
:1008E000C9F08430B1F4809180008F7D03C0809185
:1008F00080008F7780938000089584B58F7784BDC2
:10090000089584B58F7DFBCF8091B0008F77809361
:10091000B00008958091B0008F7DF9CFCF93DF9321
:10092000282F30E0F901E45DF74F8491F901E05C94
:10093000F74FD491F901E25AF74FC491CC23A1F0BB
:1009400081110E946504EC2FF0E0EE0FFF1FEE5DB9
:10095000F74FA591B491EC91ED2381E090E009F47B
:1009600080E0DF91CF91089580E090E0FACF1F936F
:10097000CF93DF93282F30E0F901E45DF74F8491A6
:10098000F901E05CF74FD491F901E25AF74FC491B5
:10099000CC23A9F0162F81110E946504EC2FF0E002
:1009A000EE0FFF1FEC5AF74FA591B4918FB7F89453
:1009B000EC91111108C0D095DE23DC938FBFDF913D
:1009C000CF911F910895DE2BF8CFCF93DF9390E066
:1009D000FC01E05CF74F2491825A974FFC0184910F
:1009E0008823C9F090E0880F991FFC01E85EF74F5B
:1009F000A591B491FC01EC5AF74FC591D4916111C6
:100A00000DC09FB7F8948C91209582238C93888198
:100A1000282328839FBFDF91CF910895623051F43E
:100A20009FB7F8943C91822F809583238C93E88123
:100A30002E2BEFCF8FB7F894EC912E2B2C938FBFEA
:100A4000EACF1F93CF93DF93182FEB0161E00E9451
:100A5000E504209739F460E0812FDF91CF911F9159
:100A60000C94B704CF3FD10511F461E0F5CFE12F2D
:100A7000F0E0E45DF74FE491E33031F140F4E13030
:100A8000B1F0E230E1F0C038D1057CF7E4CFE730D7
:100A900029F1E83059F1E430B1F7809180008062AB
:100AA00080938000D0938B00C0938A0004C084B5EB
:100AB000806884BDC7BDDF91CF911F91089584B533
:100AC000806284BDC8BDF7CF80918000806880932C
:100AD0008000D0938900C0938800EDCF8091B00052
:100AE00080688093B000C093B300E5CF8091B000E0
:100AF00080628093B000C093B400DDCFCF92DF92CC
:100B0000EF92FF926B017C0120E030E0A9010E948E
:100B1000B11787FD3BC020E030E040E85FE3C7014C
:100B2000B6010E941019181634F4C12CD12C80E89B
:100B3000E82E8FE3F82EC092AC02D092AD02E09284
:100B4000AE02F092AF0220E030E04FE753E4C7017D
:100B5000B6010E94151920E030E040E05FE30E94FA
:100B600045170E9428182FEF30E07901E61AF70A9E
:100B7000B7018091AA020E942105B7018091AB02C2
:100B8000FF90EF90DF90CF900C942105C12CD12CD9
:100B90007601D1CF8E3008F08E50877080648093BC
:100BA0007C0080917A00806480937A0080917A0042
:100BB00086FDFCCF809178009091790008958F9206
:100BC0009F92AF92BF92CF92DF92EF92FF92CF931C
:100BD000DF93C8EBD2E088810E94CA05C980DA8021
:100BE000EB80FC80BC01990F880B990B0E94601868
:100BF00020E030EC4FE754E40E94B61720E030E0EC
:100C000040EA50E40E941519A70196010E941519A7
:100C10004B015C01A701960160E070E080E89FE372
:100C20000E9444172D813E814F8158850E941519DD
:100C30009B01AC01C501B4010E9445176D837E8301
:100C40008F83988720E030E040EA50E40E94B61796
:100C50002AE037ED43E25DE30E9444172AE037EDD6
:100C600043EA5AE30E94B61720E030E048EC52E431
:100C70000E94B6172CEF39EA41E85FE30E9444175F
:100C8000DF91CF91FF90EF90DF90CF90BF90AF902A
:100C90009F908F9008953FB7F8948091C5019091EF
:100CA000C601A091C701B091C80126B5A89B05C097
:100CB0002F3F19F00196A11DB11D3FBFBA2FA92FDB
:100CC000982F8827BC01CD01620F711D811D911DD8
:100CD00042E0660F771F881F991F4A95D1F7089544
:100CE0000F931F93CF93DF93CDB7DEB729970FB63E
:100CF000F894DEBF0FBECDBF0E944B060091750277
:100D00001091760220917702309178026017710776
:100D10008207930740F46093750270937602809384
:100D200077029093780200917502109176022091DB
:100D3000770230917802601B710B820B930B6C323F
:100D4000714081059105C0F2F89480916A029091FA
:100D50006B029A838983E0916F02F0917002DF0148
:100D600011968081898790916602E0917902F091D5
:100D70007A0280917B02992309F445C09081982BD7
:100D800098879081809589238F838F818C8388E0D9
:100D90008B8358856F8149853B812C8189819A811C
:100DA000508347FD252F3A952083262F39F0441F85
:100DB00000C000006083000000C0F2CF38E04D9119
:100DC00060830000019761F7F0937A02E093790263
:100DD00049873B832C839A83898378940E944B06AE
:100DE00060937502709376028093770290937802F5
:100DF00029960FB6F894DEBF0FBECDBFDF91CF911D
:100E00001F910F9108959081982B988790818095DC
:100E100089238F838F818E8388E08D8358856F81AE
:100E200049853D812E8189819A81508347FD252FF7
:100E300000C000C0208300C000C000C000C000C0CF
:100E400060830000262F3A9541F0441F000000C047
:100E500000C000C000C000C0E8CF38E04D9100C025
:100E6000608300C0019709F7F0937A02E09379025A
:100E700049873D832E83AFCF2FB7F8946091C1018E
:100E80007091C2018091C3019091C4012FBF089558
:100E9000AF92BF92CF92DF92EF92FF920F931F9388
:100EA000CF93DF936C017B018B01040F151FEB01C6
:100EB0005E01AE18BF08C017D10759F06991D6017D
:100EC000ED91FC910190F081E02DC6010995892BEF
:100ED00079F7C501DF91CF911F910F91FF90EF90AE
:100EE000DF90CF90BF90AF900895FC01538D448D5B
:100EF000252F30E0842F90E0821B930B541710F0C5
:100F0000CF96089501970895FC01918D828D9817D1
:100F100061F0A28DAE0FBF2FB11D5D968C91928DA9
:100F20009F5F9F73928F90E008958FEF9FEF0895DA
:100F3000FC01918D828D981731F0828DE80FF11DA3
:100F4000858D90E008958FEF9FEF0895FC01918DBE
:100F5000228D892F90E0805C9F4F821B91098F73B7
:100F60009927089589EC91E00E94A60721E0892B3A
:100F700009F420E0822F089580E090E0892B29F089
:100F80000E94B20781110C9400000895FC01A48D09
:100F9000A80FB92FB11DA35ABF4F2C91848D90E09B
:100FA00001968F739927848FA689B7892C93A0897E
:100FB000B1898C91837080648C93938D848D981308
:100FC00006C00288F389E02D80818F7D808308959B
:100FD000EF92FF920F931F93CF93DF93EC0181E089
:100FE000888F9B8D8C8D98131AC0E889F989808130
:100FF00085FF15C09FB7F894EE89FF896083E88963
:10100000F98980818370806480839FBF81E090E054
:10101000DF91CF911F910F91FF90EF900895F62EE1
:101020000B8D10E00F5F1F4F0F731127E02E8C8D7B
:101030008E110CC00FB607FCFACFE889F9898081C0
:1010400085FFF5CFCE010E94C607F1CFEB8DEC0FE7
:10105000FD2FF11DE35AFF4FF0829FB7F8940B8FDD
:10106000EA89FB8980818062CFCF0F931F93CF9352
:10107000DF938C01D0E0C0E0F801EC0FFD1F64911C
:10108000662341F089EC91E00E94E807892B11F07A
:101090002196F2CFCE01DF91CF911F910F9108954C
:1010A000CF93DF93EC01888D8823B9F0AA89BB899F
:1010B000E889F9898C9185FD03C0808186FD0DC08A
:1010C0000FB607FCF7CF8C9185FFF2CF808185FFAB
:1010D000EDCFCE010E94C607E9CFDF91CF910895F1
:1010E000AF92BF92CF92DF92EF92FF920F931F9336
:1010F000CF938C01C12CD12C7601C0E083ECA82EBB
:10110000B12CF80180810E94CA05092E000CAA0B9F
:10111000BB0BC80ED91EEA1EFB1EC93019F0C50153
:101120000197F1F7CF5FCA3061F7C701B6010E949E
:101130005E1820E030E040E251E40E94B61720E063
:1011400030EC4FE754E40E94B6172DEC3CEC4CE930
:1011500050E40E941519CF911F910F91FF90EF90CD
:10116000DF90CF90BF90AF900895CF92DF92EF9233
:10117000FF92CF93DF93EC0188810E94CA05BC01E6
:10118000990F880B990B0E94601820E030EC4FE714
:1011900054E40E94B6172DEC3CEC4CE950E40E945C
:1011A000151927EC39E24AEB5DE30E94B6176B0193
:1011B0007C018D818823E1F020E030E0A901698184
:1011C0007A818B819C810E941519A70196010E944A
:1011D000451769837A838B839C8369817A818B81AC
:1011E0009C81DF91CF91FF90EF90DF90CF90089599
:1011F000C982DA82EB82FC8281E08D83EECF8F920E
:101200009F92AF92BF92CF92DF92EF92FF92CF93D5
:10121000DF93EC010E9470086B017C018D818823B3
:1012200009F454C02AE939E949E55FE369817A8123
:101230008B819C810E9415194B015C012AE939E9D7
:1012400049E15EE3C701B6010E9415199B01AC019B
:10125000C501B4010E94451769837A838B839C83FF
:101260002AE939E949E15FE369817A818B819C81CF
:101270000E9444172FE832EC45E75DE30E94B61761
:101280006B017C0120E030E0A9010E94B11787FDCD
:1012900024C020E030E048E452E4C701B6010E94D7
:1012A0001019181634F4C12CD12C88E4E82E82E4ED
:1012B000F82EC701B601DF91CF91FF90EF90DF903C
:1012C000CF90BF90AF909F908F900895C982DA829F
:1012D000EB82FC8281E08D83C3CFC12CD12C7601BF
:1012E000E8CFCF93DF93EC0160E088810E94E504B2
:1012F00088810E94CA05BC01990F880B990B0E9436
:10130000601820E030EC4FE754E40E94B6172DEC53
:101310003CEC4CE950E40E94151969837A838B8375
:101320009C8381E08D83DF91CF910895FC01019032
:101330000020E9F73197AF01481B590BBC0189EC3C
:1013400091E00C94480788E391E00C949609CF93C0
:10135000DF930E943508EC010E94A3098C0F9D1FAA
:10136000DF91CF9108958F929F92AF92BF920F938A
:101370001F93CF93DF93CDB7DEB7A1970FB6F89445
:10138000DEBF0FBECDBF19A2423008F44AE08E0185
:101390000F5D1F4F842E912CB12CA12CA50194011F
:1013A0000E949B19E62FB901CA01EA30F4F4E05D0E
:1013B000D801EE938D01232B242B252B79F790E078
:1013C00080E0109719F0CD010E949609A1960FB602
:1013D000F894DEBF0FBECDBFDF91CF911F910F916B
:1013E000BF90AF909F908F900895E95CE1CFCF932D
:1013F000DF934AE00E94B309EC010E94A3098C0F1D
:101400009D1FDF91CF9108954F925F926F927F92CF
:101410008F929F92AF92BF92CF92DF92EF92FF9204
:101420000F931F93CF936B017C01742EAC019B0132
:101430000E948219882399F08BE391E0CF911F914C
:101440000F91FF90EF90DF90CF90BF90AF909F9063
:101450008F907F906F905F904F900C94960946010B
:101460005701E894B7F82FEF3FEF4FE75FE7C5016B
:10147000B4010E94821981110DC02FEF3FEF4FE799
:101480005FE7C501B4010E94B11718161CF48FE381
:1014900091E0D4CF2FEF3FEF4FE75FE4C701B601F4
:1014A0000E94101918161CF483E491E0C7CF2FEFA7
:1014B0003FEF4FE75FECC701B6010E94B11787FD10
:1014C000F3CF20E030E0A901C701B6010E94B117B7
:1014D00010E000E087FF0AC06DE289EC91E00E9415
:1014E000E8078C01F7FAF094F7F8F094C0E060E0B8
:1014F00070E080E09FE37C1641F020E030E040E2C5
:1015000051E40E94B617CF5FF6CFA70196010E9463
:1015100045172B013C010E942F184B015C014AE04A
:101520000E94B3097C01E00EF11ECC23C1F1C5017C
:10153000B4010E945E189B01AC01C301B2010E947C
:1015400044174B015C016EE289EC91E00E94E807D0
:10155000E80EF91EC15018F120E030E040E251E4FD
:10156000C501B4010E9415192B013C010E942F18DE
:101570004B01B12CA12C4AE0C501B4010E94B30972
:10158000E80EF91EC501B4010E945E189B01AC0172
:10159000C301B2010E9444174B015C01DBCFC701BC
:1015A000CF911F910F91FF90EF90DF90CF90BF9060
:1015B000AF909F908F907F906F905F904F90089525
:1015C0000C94040ACF93DF9341E00E94040AEC01DB
:1015D0000E94A3098C0F9D1FDF91CF910895009762
:1015E00011F00C94960990E080E00895CF93DF937A
:1015F000D0E0C0E0009719F00E949609EC010E942B
:10160000A3098C0F9D1FDF91CF9108951F920F9218
:101610000FB60F9211242F933F938F939F93AF9305
:10162000BF938091C1019091C201A091C301B0917B
:10163000C4013091C00123E0230F2D3758F50196E6
:10164000A11DB11D2093C0018093C1019093C201DF
:10165000A093C301B093C4018091C5019091C601CC
:10166000A091C701B091C8010196A11DB11D809341
:10167000C5019093C601A093C701B093C801BF9163
:10168000AF919F918F913F912F910F900FBE0F902F
:101690001F90189526E8230F0296A11DB11DD2CFE9
:1016A0001F920F920FB60F9211242F933F934F93D7
:1016B0005F936F937F938F939F93AF93BF93EF93BA
:1016C000FF9389EC91E00E94C607FF91EF91BF91D3
:1016D000AF919F918F917F916F915F914F913F91CA
:1016E0002F910F900FBE0F901F9018951F920F9281
:1016F0000FB60F9211242F938F939F93EF93FF9325
:10170000E091D901F091DA018081E091DF01F0915F
:10171000E00182FD1BC090818091E2018F5F8F7399
:101720002091E301821741F0E091E201F0E0E753FC
:10173000FE4F958F8093E201FF91EF919F918F91E2
:101740002F910F900FBE0F901F9018958081F4CFAE
:101750000F931F93CF931092CC011092CB0188EE80
:1017600093E0A0E0B0E08093CD019093CE01A093F0
:10177000CF01B093D0018AE291E09093CA018093A7
:10178000C90185EC90E09093D6018093D50184EC5B
:1017900090E09093D8018093D70180EC90E09093F3
:1017A000DA018093D90181EC90E09093DC01809381
:1017B000DB0182EC90E09093DE018093DD0186EC0A
:1017C00090E09093E0018093DF011092E20110928B
:1017D000E3011092E4011092E50182E18093B802E6
:1017E0008AE999E9A9E1BEE38093B9029093BA022C
:1017F000A093BB02B093BC021092BD021092BE0235
:101800001092BF021092C002C3E0C093AA0285E00A
:101810008093AB021092AC021092AD021092AE0215
:101820001092AF0240E050E060E87FE34093B002E6
:101830005093B1026093B2027093B30280E090E0E3
:10184000A0E4B1E48093B4029093B502A093B602F1
:10185000B093B70220E12093A4020AE919E929E133
:101860003FE30093A5021093A6022093A7023093B2
:10187000A8021092A902E1E1E0939E0200939F0268
:101880001093A0022093A1023093A2021092A3020F
:1018900024EA32E030938E0220938D022EE932E06A
:1018A0003093900220938F02109291024093920203
:1018B0005093930260939402709395021092960253
:1018C00010929702109298021092990210929A0226
:1018D00010929B0210929C0210929D0223E1209391
:1018E00087028093880290938902A0938A02B09322
:1018F0008B0210928C0287E892E090937D02809395
:101900007C0210927E0210927F021092800210924E
:10191000810210928202109283021092840210922D
:101920008502109286021092670210926E02109247
:10193000750210927602109277021092780281E07E
:1019400080937402809371021092720292E09093DD
:1019500073028093660283E090E090936B02809321
:101960006A020E94C3199093700280936F020097DD
:1019700099F1FC011192CA95E9F781E090E090930A
:1019800069028093680282E090E090936D028093F8
:101990006C0280916702882341F061E082E00E943E
:1019A000E50460E082E00E94B704E0E6F8E0E4913C
:1019B000F0E0EE0FFF1FEC5AF74F85919491909352
:1019C0007A0280937902E2E4F8E0E491E0937B020A
:1019D000CF911F910F91089510926B0210926A029D
:1019E0001092690210926802CECFCF93DF93CDB7E9
:1019F000DEB72D970FB6F894DEBF0FBECDBF78943B
:101A000084B5826084BD84B5816084BD85B5826003
:101A100085BD85B5816085BD80916E0081608093B4
:101A20006E0010928100809181008260809381001D
:101A3000809181008160809381008091800081602D
:101A4000809380008091B10084608093B100809188
:101A5000B00081608093B00080917A0084608093B0
:101A60007A0080917A00826080937A0080917A0077
:101A7000816080937A0080917A00806880937A00F8
:101A80001092C100E091D901F091DA0182E08083E7
:101A9000E091D501F091D6011082E091D701F0914B
:101AA000D80180E180831092E101E091DD01F091A5
:101AB000DE0186E08083E091DB01F091DC01808132
:101AC00080618083E091DB01F091DC01808188609E
:101AD0008083E091DB01F091DC018081806880836C
:101AE000E091DB01F091DC0180818F7D80838CE7C8
:101AF00092E00E94A70984E592E00E94A7098BE288
:101B000092E00E94A7090E94A30981E092E00E944E
:101B1000A70961E08091AA020E94B70461E0809168
:101B2000AB020E94B7048BE891E00197F1F761E006
:101B30008091AA020E94E50461E08091AB020E94BC
:101B4000E5048091B0008C7F81608093B00080912B
:101B5000B100877F8093B1008091B100887F82605F
:101B60008093B10084B58C7F816084BD85B5877F0B
:101B700085BD85B5887F826085BD60E070E0CB0162
:101B80000E947E058BE79AE10197F1F789EE91E0DB
:101B90000E94A70960E08091B8020E94E50480914C
:101BA000B8020E94CA05BC01990F880B990B0E94CC
:101BB000601820E030EC4FE754E40E94B61720E0B4
:101BC00030E040EA50E40E9415196093BD02709322
:101BD000BE028093BF029093C00284EA92E00E940A
:101BE00071098EE992E00E9471091092910280E0E1
:101BF00090E0A0E8BFE38093920290939302A093B9
:101C00009402B09395020E943C07609396027093F1
:101C10009702809398029093990210929A021092E0
:101C20009B0210929C0210929D0288E690E00E9416
:101C3000A70960E0809187020E94E50480918702F5
:101C40000E94CA05BC01990F880B990B0E9460186D
:101C500020E030EC4FE754E40E94B6172DEC3CEC4A
:101C60004CE950E40E94151927EC39E24AEB5DE398
:101C70000E94B617609388027093890280938A024B
:101C800090938B0221E020938C0210927E020E949E
:101C90003C0760937F02709380028093810290934F
:101CA0008202109283021092840210928502109296
:101CB000860288E890E00E94A7098EEC91E00E94DD
:101CC000A70980916C0290916D0297FD2EC061E092
:101CD0000E94E50460E080916C020E94B70431E04C
:101CE0003093670260916E02633341F1615001F1FC
:101CF00070E08FEF92E30E94871920916F0230917C
:101D00007002F90140916A0250916B02CF01821B6F
:101D1000930B8417950778F44081469FC001479F35
:101D2000900D112490833196EDCF10926702DACF97
:101D300070E060E0E2CF83E380936E0280916F02F7
:101D400090917002892B11F00E94700660E087E08C
:101D50000E94E50462E088E00E94E5048FEB91E0D8
:101D60000E94A70982EB91E00E94350842E050E012
:101D70006DEC7CEC8CEC9EE30E94E00A80EB91E041
:101D80000E94350842E050E06AE979E989E19FE381
:101D90000E94E00A8BEA91E00E94A7098EE991E097
:101DA0000E94350850E040E060E070E08CE892E48A
:101DB0000E94E00A8CE991E00E94350850E040E082
:101DC00060E070E088EC92E40E94E00A8FE891E025
:101DD0000E94A7090E94A30984E791E00E94A70935
:101DE00087E691E00E94350860E070E088EC91E4BD
:101DF0000E94E20A8AE591E00E94350860E070E006
:101E000080EF91E40E94E20A8DE491E00E9435089F
:101E100060E070E08CE092E40E94E20A80E491E0ED
:101E20000E94350860E070E080E292E40E94E20ADD
:101E30000E94A30983E391E00E94A7098AE091E050
:101E40000E94A7090E94A30981EE90E00E94A709C1
:101E500060E070E0CB010E947E058BEF91E101977D
:101E6000F1F787EC90E00E94A7090E94A3090E9465
:101E70003C0769837A838B839C838091BC0190911A
:101E8000BD01A091BE01B091BF0129813A814B8172
:101E90005C81281B390B4A0B5B0BDA01C9018039C5
:101EA0009140A105B10508F412C589819A81AB81E1
:101EB000BC818093BC019093BD01A093BE01B093FF
:101EC000BF0187E00E948E040197A9F460E070E0F2
:101ED000CB010E947E0585EE97E00E94A70920E0D5
:101EE00030E0232B21F20E94B207882309F4BFCFF0
:101EF0000E940000BCCF0E94DF052B013C012DECAD
:101F00003CEC4CEC5EE30E94B11718160CF083C059
:101F10002AE939E949E15FE3C301B2010E941019DE
:101F200087FF7CC02DEC3CEC4CEC5EE3C301B201BE
:101F30000E9444172EEC3CEC4CE45EE30E94B61782
:101F40006B017C0120E030E04FE753E40E9415195B
:101F50000E942F186D83A701960160E070E080E871
:101F60009FE30E94441720E030E04FE753E40E94D3
:101F700015190E942F18462F50E070E060E0762F70
:101F8000652F542F4427AD816A2BCB01AA27BB278D
:101F9000E82EF52EBC0150E040E02091680230911F
:101FA000690280916F02909170024217530708F006
:101FB00045C020916E02AF2DBE2D222351F0269FE9
:101FC000F001279FF00D1124BF2F2F9D90011124A8
:101FD000A32FE091740220917102E21323C09A01B1
:101FE000220F331F240F351F820F931FE0917102C0
:101FF000E80FF92FF11DB083E0917202E80FF92F7D
:10200000F11DA08320917302820F911DFC011082AB
:102010004F5F5F4FC2CF6FEF1D82ADCF60E09FEF8C
:102020009D83A9CF9A01220F331F220F331F820FE6
:10203000931FE80FF92FF11D1082D8CF892B11F0D3
:102040000E94700687E892E00E94B50869877A8747
:102050008B879C87E0917C02F0917D02C180D280C9
:10206000E380F48020E030E040EE50E4C701B601A8
:102070000E94101987FD44C0F1E0FD8320E030E0AC
:1020800040E851E4C701B6010E94B11718160CF4DC
:102090001D8281E02D8128272D8380917E024D8134
:1020A000841709F4B4C00E943C0700917F0210918C
:1020B000800220918102309182026B017C01C01A62
:1020C000D10AE20AF30AF3E0F694E794D794C794AE
:1020D000FA95D1F780917C0290917D020E94B5081B
:1020E0004B015C018FE493E00E94350880917E02F1
:1020F000882349F0813009F4D3C184E591E005C01B
:1021000031E03D83CACF87E491E00E94EF0A8AE480
:1021100093E00E9435085D8187E491E0552331F01A
:102120008EE491E0513011F084E591E00E94EF0AD5
:102130008DE393E00E94350842E050E0C501B40110
:102140000E94E00A82E393E00E9435084AE0C7015A
:10215000B6010E94B3098FE293E00E94A7098D8126
:102160008130E9F58091830290918402A0918502EB
:10217000B09186020196A11DB11D809383029093B8
:102180008402A0938502B09386028DEF92E00E94B4
:10219000350860918302709184028091850290914C
:1021A00086020E94F7098AED92E00E94350841E01C
:1021B00050E060E070E080EE90E40E94E00A88ED7C
:1021C00092E00E94350841E050E060E070E080E875
:1021D00091E40E94E00A86ED92E00E94A7098091B6
:1021E0007E02813039F49D81911104C085EA92E02C
:1021F0000E94A709AD81A0937E020E943C076093D4
:102200007F027093800280938102909382022DEC72
:102210003CEC4CEC5EE3C301B2010E94B11718160E
:102220000CF041C12AE939E949E15FE3C301B20198
:102230000E94101987FF3FC12DEC3CEC4CEC5EE393
:10224000C301B2010E9444172EEC3CEC4CE45EE367
:102250000E94B6172AE939E949E95EE30E94151997
:1022600023E333E343E35FE30E9445171B01182F89
:102270009D8780918D0290918E020E94FF087B01C4
:10228000082F9D8380918F02909190020E94FF08F9
:10229000B62EA72E982E892E262F372F482F592F4E
:1022A000B701802F9D810E941019181624F4BE2CAE
:1022B000AF2C902E8D800091910220E030E044E31D
:1022C00052E46B2D7A2D892D982D0E94101987FFCD
:1022D000C8C5023009F4B7C108F0F3C0002309F4FF
:1022E00007C1013009F48CC11D820E943C07C090D7
:1022F0009602D0909702E0909802F09099029B018C
:10230000AC012C193D094E095F0969017A018EE281
:1023100095E00E943508E091910284E591E0E63075
:1023200038F4F0E0EE0FFF1FE65EFE4F80819181F2
:102330000E94EF0A89E295E00E9435083D81E32F73
:10234000F0E0EE0FFF1FE65EFE4F808191810E945C
:10235000EF0A8CE195E00E94350842E050E06B2DD9
:102360007A2D892D982D0E94E00A86E095E00E9442
:1023700035084AE0C701B6010E94B30983E095E041
:102380000E94A7094D81453009F04CC082E095E0DC
:102390000E94A70987ED94E00E94A7098DEA94E0C6
:1023A0000E94A70983E894E00E94A70988E594E0C9
:1023B0000E94A7098EE494E00E94350842E050E0B4
:1023C0006B2D7A2D892D982D0E94E00A8FE394E0E1
:1023D0000E94350841E050E060E070E084E392E460
:1023E0000E94E00A8CE394E00E94A7098DE194E04A
:1023F0000E94350850E040E060E070E088E492E43C
:102400000E94E00A8AE194E00E94A70985EF93E028
:102410000E94A7098AEC93E00E94A70989EC93E047
:102420000E94A7090D810450023008F580919A029C
:1024300090919B02A0919C02B0919D020196A11DDA
:10244000B11D80939A0290939B02A0939C02B0933B
:102450009D0280EA93E00E94350860919A02709193
:102460009B0280919C0290919D020E94F7098091AD
:1024700091028450823030F4023020F084E793E0FF
:102480000E94A7095D81509391020E943C076093CE
:102490009602709397028093980290939902EBC0F2
:1024A0008EE491E032CE73E3272EE3E33E2E13E376
:1024B000BFE3BD87DECE212C312C10E8EFE3ED87A2
:1024C000D8CE043009F408C308F4EBC2053009F093
:1024D0000BCF20E030E046E152E46B2D7A2D892DC0
:1024E000982D0E94B11787FFC6C0B3E0BD83FDCE13
:1024F00020E030E048EC51E46B2D7A2D892D982DA9
:102500000E94101987FFF7C2C12CD12C40E8E42E9D
:102510004FE3F42E20919202309193024091940265
:10252000509195022D833E834F835887C701B60192
:102530000E9444174B015C0120E030E0A9010E9499
:10254000101918160CF0DAC22FE632E143E85AE30C
:10255000C501B4010E94B11787FDA1C02DEC3CEC70
:102560004CE45DE3C501B4010E94101918160CF08B
:10257000D1C22DEC3CEC4CE45DE36D817E818F811A
:1025800098850E94451760939202709393028093FE
:1025900094029093950220E030E0A90160919202AC
:1025A0007091930280919402909195020E94B117CC
:1025B00087FF08C010929202109293021092940228
:1025C0001092950220E030E040E85FE360919202D3
:1025D0007091930280919402909195020E9410193B
:1025E00018160CF064C080E090E0A0E8BFE3809390
:1025F000920290939302A0939402B093950257C0D5
:1026000020E030E040EF51E46B2D7A2D892D982D9C
:102610000E94101987FF19C420E030E044EB51E418
:102620006B2D7A2D892D982D0E94B117881F882730
:10263000881F80278D83FD8180919102EFEFE80F45
:102640000F1701F152CE20E030E04CE052E46B2D48
:102650007A2D892D982D0E94101987FFF9C320E04B
:1026600030E04CED51E46B2D7A2D892D982D0E9490
:10267000B11787FDF0C380919102EFEFE80FE530CD
:1026800008F042CF94E0E99FF0011124EA5FFE4F89
:10269000C080D180E280F380853009F03BCFC092CA
:1026A0009202D0929302E0929402F0929502C0902E
:1026B0009202D0909302E0909402F090950220E074
:1026C00030E040EE50E469857A858B859C850E94D8
:1026D000B11787FD3DC220E030E040E851E4698554
:1026E0007A858B859C850E94101918160CF435C2CA
:1026F00059854A853B852C85852F942FA32FB22F92
:102700008093B4029093B502A093B602B093B7023F
:1027100020E030E0A901B601C7010E94B11787FD92
:1027200021C220E030E040E85FE3B601C7010E942B
:10273000101918160CF41BC256010E2DFD82C5018E
:10274000A02FBD818093B0029093B102A093B202FA
:10275000B093B30220E030E0A901B101812F9D8543
:102760000E94B11787FD09C220E030E040E85FE336
:10277000B101812F9D850E94101918160CF402C218
:10278000B22DA32DF12FED859501402F5D816B2F8B
:102790007A2F8F2F9E2F0E9415190E947E0584EAA2
:1027A00092E00E94FF086D837E838F8398878EE975
:1027B00092E00E94FF084B015C0187E00E948E04BA
:1027C00088E00E948E0482EE97E00E94350842E085
:1027D00050E0C301B2010E94E00A88ED97E00E9438
:1027E000350841E050E069857A858B859C850E949B
:1027F000E00A80ED97E00E94350820E030E048ECE8
:1028000052E4B101812F9D850E94151950E040E0EE
:102810000E94E00A88EC97E00E9435082091B002FF
:102820003091B1024091B2025091B3026091AC027A
:102830007091AD028091AE029091AF020E94151985
:102840002091B4023091B5024091B6025091B70286
:102850000E94151941E050E00E94E00A80EC97E0E8
:102860000E94350841E050E06D817E818F8198851E
:102870000E94E00A88EB97E00E94350841E050E0B2
:10288000C501B4010E94E00A8FEA97E00E94350872
:1028900020E030E048EC52E4B601C7010E9415196F
:1028A00050E040E00E94E00A8AEA97E00E94350882
:1028B000E091910284E591E0E63038F4F0E0EE0F2B
:1028C000FF1FE65EFE4F808191810E94F60A809193
:1028D000B8019091B901A091BA01B091BB012981D1
:1028E0003A814B815C81281B390B4A0B5B0BDA0167
:1028F000C90180349F41A105B10508F4F0CA89815E
:102900009A81AB81BC818093B8019093B901A09367
:10291000BA01B093BB0181E897E00E94A70983E761
:1029200097E00E94A7098AE497E00E94A7090E9405
:10293000DF056B017C0188E397E00E94350843E0E6
:1029400050E0C701B6010E94E00A83E397E00E94CD
:10295000A70984EA92E00E94FF084B015C018EE91E
:1029600092E00E94FF088B018D83998381E297E0BA
:102970000E94350842E050E0B401C5010E94E00A1F
:102980008EE197E00E94A7098CE097E00E9435084D
:1029900042E050E0B8018D8199810E94E00A89E00F
:1029A00097E00E94A70987EF96E00E9435089801FA
:1029B0004D815981B401C5010E94101918161CF4EB
:1029C0008401AD82B98242E050E0B8018D819981E5
:1029D0000E94E00A84EF96E00E94A70982EE96E04A
:1029E0000E9435086091A5027091A6028091A7020D
:1029F0009091A80243E050E00E94E00A82ED96E048
:102A00000E94350884EA92E00E94700843E050E09A
:102A10000E94E00A85EC96E00E94A70983EB96E00D
:102A20000E94350860919F027091A0028091A102DE
:102A30009091A20243E050E00E94E00A83EA96E00F
:102A40000E9435088EE992E00E94700843E050E051
:102A50000E94E00A86E996E00E94A70987E892E0D2
:102A60000E94B5084B015C0184E896E00E9435089D
:102A700042E050E0C501B4010E94E00A81E896E01E
:102A80000E94A7098FE696E00E94350880917E0299
:102A9000882309F47CC0813009F4C3C184E591E046
:102AA00078C020E030E040E252E46B2D7A2D892D91
:102AB000982D0E94101987FFD1C120E030E042E03C
:102AC00052E46B2D7A2D892D982D0E94B11787FF26
:102AD000D2CD92E09D8309CC20E030E042E052E488
:102AE0006B2D7A2D892D982D0E94B11787FFC3CDAC
:102AF000A2E0AD83FACBF1E0FD83F7CB2FE632E124
:102B000043E85AEBC501B4010E94101918160CF4E1
:102B1000C6CD24CD2DEC3CEC4CE45DEBC501B401FD
:102B20000E94B11787FF0BC02DEC3CEC4CE45DE339
:102B30006D817E818F8198850E94441724CDC0923B
:102B40009202D0929302E0929402F092950223CDE9
:102B500050E040E030EE20E4CFCD50E040E030E8FF
:102B600021E4CACDA12CB12C00E01D82E8CDA12C1E
:102B7000B12C00E89FE39D83E2CDB0E0A0E0F0E05F
:102B8000E0E002CEB0E0A0E0F0E8EFE3FDCD87E4C6
:102B900091E00E94F60A8DE596E00E94350880914A
:102BA0007E02811141C18CE591E00E94F60A8BE41E
:102BB00096E00E94350860918302709184028091B2
:102BC0008502909186020E94F7090E94A30989E379
:102BD00096E00E943508E091910284E591E0E630AC
:102BE00038F4F0E0EE0FFF1FE65EFE4F808191812A
:102BF0000E94F60A87E296E00E94350820E030E065
:102C000048EC52E460919202709193028091940298
:102C1000909195020E94151941E050E00E94E00A4F
:102C200084E296E00E94A70982E196E00E943508BE
:102C300060919A0270919B0280919C0290919D02FA
:102C40000E94F7092DEC3CEC4CEC5EE3C701B601A9
:102C50000E94B11718160CF0EAC02AE939E949E1D7
:102C60005FE3C701B6010E94101987FFE7C02DEC92
:102C70003CEC4CEC5EE3C701B6010E9444172EEC1D
:102C80003CEC4CE45EE30E94B6172AE939E949E9D5
:102C90005EE30E94151923E333E343E35FE30E94FD
:102CA00045176B017C01A7019601C501B4010E9483
:102CB00015194B015C0180E096E00E94350820E088
:102CC00030E048EC52E4C701B6010E94151941E01A
:102CD00050E00E94E00A8DEF95E00E94A7098BEE7C
:102CE00095E00E94350842E050E0C501B4010E9421
:102CF000E00A88EE95E00E94A70986ED95E00E9423
:102D000035082091B0023091B1024091B202509149
:102D1000B3026091AC027091AD028091AE029091CD
:102D2000AF020E9415192091B4023091B502409172
:102D3000B6025091B7020E94151942E050E00E947D
:102D4000E00A83ED95E00E94A70981EC95E00E94DE
:102D5000350820E030E048EC52E46091AC0270911C
:102D6000AD028091AE029091AF020E94151941E030
:102D700050E00E94E00A8EEB95E00E94A70987E0F0
:102D80000E948E049A8389838CEA95E00E9435081C
:102D9000A981BA8183E691E0119711F08DE791E066
:102DA0000E94F60A87E00E948E048C0188E00E944F
:102DB0008E049A8389838AE995E00E94350880E829
:102DC00091E0012B11F087E891E00E94F60A88E873
:102DD00095E00E943508E981FA8180E891E0EF2BC7
:102DE00011F087E891E00E94F60A86E795E00E94DC
:102DF00035080E943C0720E43FE140E050E00E949B
:102E00009B19CA01B9014AE00E94B30983E795E022
:102E10000E94A7098AE495E00E94A7090E94A309DD
:102E20005EC88EE491E0B5CE80E691E0BECE93E33D
:102E3000C92EDC2CEC2C9FE3F92E35CFC12CD12CE4
:102E400080E8E82E8FE3F82E2ECF32E03D834DCA86
:102E500043E04D834ACA51E05D8347CA84E08D83D5
:102E600044CAE5E0ED83E7CB80916F029091700258
:102E70000E945F1A80916C0290916D0297FD03C0D1
:102E800060E00C94E50408955058BB27AA270E94DF
:102E90005C170C94D6180E94C81838F00E94CF18FE
:102EA00020F039F49F3F19F426F40C94C5180EF461
:102EB000E095E7FB0C94BF18E92F0E94E71858F340
:102EC000BA17620773078407950720F079F4A6F50F
:102ED0000C9409190EF4E0950B2EBA2FA02D0B01BE
:102EE000B90190010C01CA01A0011124FF27591B4F
:102EF00099F0593F50F4503E68F11A16F040A22F55
:102F0000232F342F4427585FF3CF469537952795C5
:102F1000A795F0405395C9F77EF41F16BA0B620BC4
:102F2000730B840BBAF09150A1F0FF0FBB1F661F0B
:102F3000771F881FC2F70EC0BA0F621F731F841F4E
:102F400048F4879577956795B795F7959E3F08F074
:102F5000B0CF9395880F08F09927EE0F9795879536
:102F600008950E949B1808F481E008950E94CA17F2
:102F70000C94D6180E94CF1858F00E94C81840F040
:102F800029F45F3F29F00C94BF1851110C940A19D1
:102F90000C94C5180E94E71868F39923B1F35523E0
:102FA00091F3951B550BBB27AA276217730784075C
:102FB00038F09F5F5F4F220F331F441FAA1FA9F3F2
:102FC00035D00E2E3AF0E0E832D091505040E695E0
:102FD000001CCAF72BD0FE2F29D0660F771F881F41
:102FE000BB1F261737074807AB07B0E809F0BB0B34
:102FF000802DBF01FF2793585F4F3AF09E3F510548
:1030000078F00C94BF180C940A195F3FE4F3983ED3
:10301000D4F3869577956795B795F7959F5FC9F730
:10302000880F911D9695879597F90895E1E0660FB1
:10303000771F881FBB1F621773078407BA0720F02A
:10304000621B730B840BBA0BEE1F88F7E095089593
:103050000E942F186894B1110C940A1908950E94C7
:10306000EF1888F09F5798F0B92F9927B751B0F013
:10307000E1F0660F771F881F991F1AF0BA95C9F7FC
:1030800014C0B13091F00E940919B1E008950C9478
:103090000919672F782F8827B85F39F0B93FCCF32B
:1030A000869577956795B395D9F73EF49095809579
:1030B000709561957F4F8F4F9F4F0895E89409C099
:1030C00097FB3EF490958095709561957F4F8F4F5B
:1030D0009F4F9923A9F0F92F96E9BB279395F69571
:1030E000879577956795B795F111F8CFFAF4BB0FEF
:1030F00011F460FF1BC06F5F7F4F8F4F9F4F16C053
:10310000882311F096E911C0772321F09EE8872FDC
:10311000762F05C0662371F096E8862F70E060E098
:103120002AF09A95660F771F881FDAF7880F969511
:10313000879597F90895990F0008550FAA0BE0E8B5
:10314000FEEF16161706E807F907C0F01216130669
:10315000E407F50798F0621B730B840B950B39F4A9
:103160000A2661F0232B242B252B21F408950A260F
:1031700009F4A140A6958FEF811D811D089597F94F
:103180009F6780E870E060E008959FEF80EC08950D
:1031900000240A9416161706180609060895002436
:1031A0000A9412161306140605060895092E0394B0
:1031B000000C11F4882352F0BB0F40F4BF2B11F424
:1031C00060FF04C06F5F7F4F8F4F9F4F089557FD83
:1031D0009058440F551F59F05F3F71F04795880F85
:1031E00097FB991F61F09F3F79F08795089512161C
:1031F00013061406551FF2CF4695F1DF08C01616C8
:1032000017061806991FF1CF869571056105089478
:103210000895E894BB2766277727CB0197F908958F
:103220000E949B1808F48FEF08950E9428190C94AF
:10323000D6180E94C81838F00E94CF1820F09523A5
:1032400011F00C94BF180C94C51811240C940A1991
:103250000E94E71870F3959FC1F3950F50E0551F3A
:10326000629FF001729FBB27F00DB11D639FAA27DB
:10327000F00DB11DAA1F649F6627B00DA11D661F2A
:10328000829F2227B00DA11D621F739FB00DA11D4B
:10329000621F839FA00D611D221F749F3327A00D05
:1032A000611D231F849F600D211D822F762F6A2FA1
:1032B00011249F5750409AF0F1F088234AF0EE0F06
:1032C000FF1FBB1F661F771F881F91505040A9F733
:1032D0009E3F510580F00C94BF180C940A195F3F73
:1032E000E4F3983ED4F3869577956795B795F7956F
:1032F000E7959F5FC1F7FE2B880F911D96958795E7
:1033000097F908950E949B18880B990B0895AA1BA2
:10331000BB1B51E107C0AA1FBB1FA617B70710F0C0
:10332000A61BB70B881F991F5A95A9F780959095F2
:10333000BC01CD010895A1E21A2EAA1BBB1BFD0101
:103340000DC0AA1FBB1FEE1FFF1FA217B307E40784
:10335000F50720F0A21BB30BE40BF50B661F771FDC
:10336000881F991F1A9469F76095709580959095BC
:103370009B01AC01BD01CF010895EE0FFF1F059029
:10338000F491E02D09940F931F93CF93DF93823034
:10339000910510F482E090E0E091C302F091C40244
:1033A00030E020E0B0E0A0E0309799F4211531053D
:1033B00009F44AC0281B390B24303105D8F58A811D
:1033C0009B816115710589F1FB0193838283FE0165
:1033D00011C0408151810281138148175907E0F0E3
:1033E0004817590799F4109761F012960C931297A9
:1033F00013961C933296CF01DF91CF911F910F91BD
:1034000008950093C3021093C402F4CF211531052F
:1034100051F04217530738F0A901DB019A01BD01B1
:10342000DF01F801C1CFEF01F9CF9093C40280937F
:10343000C302CDCFFE01E20FF31F8193919322507F
:10344000310939832883D7CF2091C1023091C2023C
:10345000232B41F420910201309103013093C202E9
:103460002093C10220910001309101012115310505
:1034700041F42DB73EB74091040150910501241B42
:10348000350BE091C102F091C202E217F307A0F4FC
:103490002E1B3F0B2817390778F0AC014E5F5F4FAA
:1034A0002417350748F04E0F5F1F5093C202409318
:1034B000C102819391939FCFF0E0E0E09CCFCF9346
:1034C000DF930097E9F0FC01329713821282A091FA
:1034D000C302B091C402ED0130E020E01097A1F4E6
:1034E00020813181820F931F2091C1023091C2024D
:1034F0002817390709F061C0F093C202E093C102B6
:10350000DF91CF910895EA01CE17DF07E8F54A81F0
:103510005B819E0141155105B1F7E901FB83EA8307
:1035200049915991C40FD51FEC17FD0761F48081B3
:1035300091810296840F951FE90199838883828186
:1035400093819B838A83F0E0E0E012968D919C91B9
:1035500013970097B9F52D913C911197CD010296E3
:10356000820F931F2091C1023091C20228173907A0
:1035700039F6309751F51092C4021092C302B093FD
:10358000C202A093C102BCCFD383C28340815181C8
:10359000840F951FC817D90761F44E5F5F4F88816C
:1035A0009981480F591F518340838A819B8193835E
:1035B00082832115310509F0B0CFF093C402E09366
:1035C000C3029ECFFD01DC01C0CF13821282D7CF90
:1035D00014E0CAE3D4E004C0FE010E94BD192196A4
:1035E000CB33D107C9F7F894FFCF0000C5028000A4
:1035F0003333333F9A99193F0000003F0000003FEA
:10360000000000004701900198019D014E01A601B4
:1036100000000000E807480775075008A607840760
:1036200098070D0A006E616E00696E66006F76661F
:10363000004E4F524D414C004641554C5400554EA2
:103640004B4E4F574E00594553004E4F002A2A2AE1
:1036500020414354495645202853485554444F5718
:103660004E29202A2A2A004F4B00414354495645EF
:1036700000696E616374697665005741524E494E28
:1036800047004849474800435249544943414C0088
:103690002A2A2A20454D455247454E4359202A2A79
:0236A0002A00FE
:107E0000112484B714BE81FFF0D085E080938100F7
:107E100082E08093C00088E18093C10086E0809377
:107E2000C20080E18093C4008EE0C9D0259A86E02C
:107E300020E33CEF91E0309385002093840096BBD3
:107E4000B09BFECF1D9AA8958150A9F7CC24DD24C4
:107E500088248394B5E0AB2EA1E19A2EF3E0BF2EE7
:107E6000A2D0813461F49FD0082FAFD0023811F036
:107E7000013811F484E001C083E08DD089C08234E0
:107E800011F484E103C0853419F485E0A6D080C0E4
:107E9000853579F488D0E82EFF2485D0082F10E0AE
:107EA000102F00270E291F29000F111F8ED06801E7
:107EB0006FC0863521F484E090D080E0DECF843638
:107EC00009F040C070D06FD0082F6DD080E0C81688
:107ED00080E7D80618F4F601B7BEE895C0E0D1E017
:107EE00062D089930C17E1F7F0E0CF16F0E7DF06D8
:107EF00018F0F601B7BEE89568D007B600FCFDCFD4
:107F0000A601A0E0B1E02C9130E011968C91119780
:107F100090E0982F8827822B932B1296FA010C0160
:107F200087BEE89511244E5F5F4FF1E0A038BF0790
:107F300051F7F601A7BEE89507B600FCFDCF97BE46
:107F4000E89526C08437B1F42ED02DD0F82E2BD052
:107F50003CD0F601EF2C8F010F5F1F4F84911BD097
:107F6000EA94F801C1F70894C11CD11CFA94CF0C13
:107F7000D11C0EC0853739F428D08EE10CD085E9AC
:107F80000AD08FE07ACF813511F488E018D01DD067
:107F900080E101D065CF982F8091C00085FFFCCF94
:107FA0009093C60008958091C00087FFFCCF809118
:107FB000C00084FD01C0A8958091C6000895E0E648
:107FC000F0E098E1908380830895EDDF803219F02E
:107FD00088E0F5DFFFCF84E1DECF1F93182FE3DFCA
:107FE0001150E9F7F2DF1F91089580E0E8DFEE27F6
:047FF000FF270994CA
:027FFE00040479
:00000001FF
